{
  "_format": "hh-sol-artifact-1",
  "contractName": "Vote",
  "sourceName": "contracts/Vote.sol",
  "abi": [
    {
      "inputs": [
        {
          "internalType": "string[]",
          "name": "candidateNames",
          "type": "string[]"
        }
      ],
      "stateMutability": "nonpayable",
      "type": "constructor"
    },
    {
      "inputs": [
        {
          "internalType": "uint256",
          "name": "",
          "type": "uint256"
        }
      ],
      "name": "candidates",
      "outputs": [
        {
          "internalType": "string",
          "name": "name",
          "type": "string"
        },
        {
          "internalType": "uint256",
          "name": "voteCount",
          "type": "uint256"
        }
      ],
      "stateMutability": "view",
      "type": "function"
    },
    {
      "inputs": [],
      "name": "getCandidateCount",
      "outputs": [
        {
          "internalType": "uint256",
          "name": "",
          "type": "uint256"
        }
      ],
      "stateMutability": "view",
      "type": "function"
    },
    {
      "inputs": [],
      "name": "getCandidates",
      "outputs": [
        {
          "internalType": "string[]",
          "name": "",
          "type": "string[]"
        }
      ],
      "stateMutability": "view",
      "type": "function"
    },
    {
      "inputs": [],
      "name": "getResults",
      "outputs": [
        {
          "internalType": "string[]",
          "name": "names",
          "type": "string[]"
        },
        {
          "internalType": "uint256[]",
          "name": "voteCounts",
          "type": "uint256[]"
        }
      ],
      "stateMutability": "view",
      "type": "function"
    },
    {
      "inputs": [
        {
          "internalType": "address",
          "name": "",
          "type": "address"
        }
      ],
      "name": "hasVoted",
      "outputs": [
        {
          "internalType": "bool",
          "name": "",
          "type": "bool"
        }
      ],
      "stateMutability": "view",
      "type": "function"
    },
    {
      "inputs": [
        {
          "internalType": "uint256",
          "name": "candidateIndex",
          "type": "uint256"
        }
      ],
      "name": "vote",
      "outputs": [],
      "stateMutability": "nonpayable",
      "type": "function"
    }
  ],
  "bytecode": "0x608060405234801561001057600080fd5b506040516113ba3803806113ba8339818101604052810190610032919061032a565b60005b81518110156100c8576000604051806040016040528084848151811061005e5761005d610373565b5b602002602001015181526020016000815250908060018154018082558091505060019003906000526020600020906002020160009091909190915060008201518160000190816100ae91906105c3565b506020820151816001015550508080600101915050610035565b5050610695565b6000604051905090565b600080fd5b600080fd5b600080fd5b6000601f19601f8301169050919050565b7f4e487b7100000000000000000000000000000000000000000000000000000000600052604160045260246000fd5b610131826100e8565b810181811067ffffffffffffffff821117156101505761014f6100f9565b5b80604052505050565b60006101636100cf565b905061016f8282610128565b919050565b600067ffffffffffffffff82111561018f5761018e6100f9565b5b602082029050602081019050919050565b600080fd5b600080fd5b600067ffffffffffffffff8211156101c5576101c46100f9565b5b6101ce826100e8565b9050602081019050919050565b60005b838110156101f95780820151818401526020810190506101de565b60008484015250505050565b6000610218610213846101aa565b610159565b905082815260208101848484011115610234576102336101a5565b5b61023f8482856101db565b509392505050565b600082601f83011261025c5761025b6100e3565b5b815161026c848260208601610205565b91505092915050565b600061028861028384610174565b610159565b905080838252602082019050602084028301858111156102ab576102aa6101a0565b5b835b818110156102f257805167ffffffffffffffff8111156102d0576102cf6100e3565b5b8086016102dd8982610247565b855260208501945050506020810190506102ad565b5050509392505050565b600082601f830112610311576103106100e3565b5b8151610321848260208601610275565b91505092915050565b6000602082840312156103405761033f6100d9565b5b600082015167ffffffffffffffff81111561035e5761035d6100de565b5b61036a848285016102fc565b91505092915050565b7f4e487b7100000000000000000000000000000000000000000000000000000000600052603260045260246000fd5b600081519050919050565b7f4e487b7100000000000000000000000000000000000000000000000000000000600052602260045260246000fd5b600060028204905060018216806103f457607f821691505b602082108103610407576104066103ad565b5b50919050565b60008190508160005260206000209050919050565b60006020601f8301049050919050565b600082821b905092915050565b60006008830261046f7fffffffffffffffffffffffffffffffffffffffffffffffffffffffffffffffff82610432565b6104798683610432565b95508019841693508086168417925050509392505050565b6000819050919050565b6000819050919050565b60006104c06104bb6104b684610491565b61049b565b610491565b9050919050565b6000819050919050565b6104da836104a5565b6104ee6104e6826104c7565b84845461043f565b825550505050565b600090565b6105036104f6565b61050e8184846104d1565b505050565b5b81811015610532576105276000826104fb565b600181019050610514565b5050565b601f821115610577576105488161040d565b61055184610422565b81016020851015610560578190505b61057461056c85610422565b830182610513565b50505b505050565b600082821c905092915050565b600061059a6000198460080261057c565b1980831691505092915050565b60006105b38383610589565b9150826002028217905092915050565b6105cc826103a2565b67ffffffffffffffff8111156105e5576105e46100f9565b5b6105ef82546103dc565b6105fa828285610536565b600060209050601f83116001811461062d576000841561061b578287015190505b61062585826105a7565b86555061068d565b601f19841661063b8661040d565b60005b828110156106635784890151825560018201915060208501945060208101905061063e565b86831015610680578489015161067c601f891682610589565b8355505b6001600288020188555050505b505050505050565b610d16806106a46000396000f3fe608060405234801561001057600080fd5b50600436106100625760003560e01c80630121b93f1461006757806306a49fce1461008357806309eef43e146100a157806330a56347146100d15780633477ee2e146100ef5780634717f97c14610120575b600080fd5b610081600480360381019061007c91906106ec565b61013f565b005b61008b6102aa565b604051610098919061086b565b60405180910390f35b6100bb60048036038101906100b691906108eb565b6103f3565b6040516100c89190610933565b60405180910390f35b6100d9610413565b6040516100e6919061095d565b60405180910390f35b610109600480360381019061010491906106ec565b61041f565b6040516101179291906109c2565b60405180910390f35b6101286104db565b604051610136929190610ab0565b60405180910390f35b600160003373ffffffffffffffffffffffffffffffffffffffff1673ffffffffffffffffffffffffffffffffffffffff16815260200190815260200160002060009054906101000a900460ff16156101cc576040517f08c379a00000000000000000000000000000000000000000000000000000000081526004016101c390610b33565b60405180910390fd5b6000805490508110610213576040517f08c379a000000000000000000000000000000000000000000000000000000000815260040161020a90610b9f565b60405180910390fd5b60018060003373ffffffffffffffffffffffffffffffffffffffff1673ffffffffffffffffffffffffffffffffffffffff16815260200190815260200160002060006101000a81548160ff0219169083151502179055506001600082815481106102805761027f610bbf565b5b906000526020600020906002020160010160008282546102a09190610c1d565b9250508190555050565b60606000808054905067ffffffffffffffff8111156102cc576102cb610c51565b5b6040519080825280602002602001820160405280156102ff57816020015b60608152602001906001900390816102ea5790505b50905060005b6000805490508110156103eb576000818154811061032657610325610bbf565b5b9060005260206000209060020201600001805461034290610caf565b80601f016020809104026020016040519081016040528092919081815260200182805461036e90610caf565b80156103bb5780601f10610390576101008083540402835291602001916103bb565b820191906000526020600020905b81548152906001019060200180831161039e57829003601f168201915b50505050508282815181106103d3576103d2610bbf565b5b60200260200101819052508080600101915050610305565b508091505090565b60016020528060005260406000206000915054906101000a900460ff1681565b60008080549050905090565b6000818154811061042f57600080fd5b906000526020600020906002020160009150905080600001805461045290610caf565b80601f016020809104026020016040519081016040528092919081815260200182805461047e90610caf565b80156104cb5780601f106104a0576101008083540402835291602001916104cb565b820191906000526020600020905b8154815290600101906020018083116104ae57829003601f168201915b5050505050908060010154905082565b6060806000808054905090508067ffffffffffffffff81111561050157610500610c51565b5b60405190808252806020026020018201604052801561053457816020015b606081526020019060019003908161051f5790505b5092508067ffffffffffffffff81111561055157610550610c51565b5b60405190808252806020026020018201604052801561057f5781602001602082028036833780820191505090505b50915060005b818110156106ab57600081815481106105a1576105a0610bbf565b5b906000526020600020906002020160000180546105bd90610caf565b80601f01602080910402602001604051908101604052809291908181526020018280546105e990610caf565b80156106365780601f1061060b57610100808354040283529160200191610636565b820191906000526020600020905b81548152906001019060200180831161061957829003601f168201915b505050505084828151811061064e5761064d610bbf565b5b60200260200101819052506000818154811061066d5761066c610bbf565b5b90600052602060002090600202016001015483828151811061069257610691610bbf565b5b6020026020010181815250508080600101915050610585565b50509091565b600080fd5b6000819050919050565b6106c9816106b6565b81146106d457600080fd5b50565b6000813590506106e6816106c0565b92915050565b600060208284031215610702576107016106b1565b5b6000610710848285016106d7565b91505092915050565b600081519050919050565b600082825260208201905092915050565b6000819050602082019050919050565b600081519050919050565b600082825260208201905092915050565b60005b8381101561077f578082015181840152602081019050610764565b60008484015250505050565b6000601f19601f8301169050919050565b60006107a782610745565b6107b18185610750565b93506107c1818560208601610761565b6107ca8161078b565b840191505092915050565b60006107e1838361079c565b905092915050565b6000602082019050919050565b600061080182610719565b61080b8185610724565b93508360208202850161081d85610735565b8060005b85811015610859578484038952815161083a85826107d5565b9450610845836107e9565b925060208a01995050600181019050610821565b50829750879550505050505092915050565b6000602082019050818103600083015261088581846107f6565b905092915050565b600073ffffffffffffffffffffffffffffffffffffffff82169050919050565b60006108b88261088d565b9050919050565b6108c8816108ad565b81146108d357600080fd5b50565b6000813590506108e5816108bf565b92915050565b600060208284031215610901576109006106b1565b5b600061090f848285016108d6565b91505092915050565b60008115159050919050565b61092d81610918565b82525050565b60006020820190506109486000830184610924565b92915050565b610957816106b6565b82525050565b6000602082019050610972600083018461094e565b92915050565b600082825260208201905092915050565b600061099482610745565b61099e8185610978565b93506109ae818560208601610761565b6109b78161078b565b840191505092915050565b600060408201905081810360008301526109dc8185610989565b90506109eb602083018461094e565b9392505050565b600081519050919050565b600082825260208201905092915050565b6000819050602082019050919050565b610a27816106b6565b82525050565b6000610a398383610a1e565b60208301905092915050565b6000602082019050919050565b6000610a5d826109f2565b610a6781856109fd565b9350610a7283610a0e565b8060005b83811015610aa3578151610a8a8882610a2d565b9750610a9583610a45565b925050600181019050610a76565b5085935050505092915050565b60006040820190508181036000830152610aca81856107f6565b90508181036020830152610ade8184610a52565b90509392505050565b7f566f7573206176657a2064656a6120766f74652e000000000000000000000000600082015250565b6000610b1d601483610978565b9150610b2882610ae7565b602082019050919050565b60006020820190508181036000830152610b4c81610b10565b9050919050565b7f4c652063616e6469646174206e27657869737465207061732e00000000000000600082015250565b6000610b89601983610978565b9150610b9482610b53565b602082019050919050565b60006020820190508181036000830152610bb881610b7c565b9050919050565b7f4e487b7100000000000000000000000000000000000000000000000000000000600052603260045260246000fd5b7f4e487b7100000000000000000000000000000000000000000000000000000000600052601160045260246000fd5b6000610c28826106b6565b9150610c33836106b6565b9250828201905080821115610c4b57610c4a610bee565b5b92915050565b7f4e487b7100000000000000000000000000000000000000000000000000000000600052604160045260246000fd5b7f4e487b7100000000000000000000000000000000000000000000000000000000600052602260045260246000fd5b60006002820490506001821680610cc757607f821691505b602082108103610cda57610cd9610c80565b5b5091905056fea2646970667358221220db4092e1b84f00877fdf396fd768a4b3267ce85585cc5ca6458f01c3efc6555964736f6c634300081c0033",
  "linkReferences": {},
  "deployedLinkReferences": {}
}