{
  "_format": "hh-sol-artifact-1",
  "contractName": "Vote",
  "sourceName": "contracts/Vote.sol",
  "abi": [
    {
      "inputs": [
        {
          "internalType": "string[]",
          "name": "candidateNames",
          "type": "string[]"
        }
      ],
      "stateMutability": "nonpayable",
      "type": "constructor"
    },
    {
      "inputs": [],
      "name": "MAX_VOTES",
      "outputs": [
        {
          "internalType": "uint256",
          "name": "",
          "type": "uint256"
        }
      ],
      "stateMutability": "view",
      "type": "function"
    },
    {
      "inputs": [
        {
          "internalType": "uint256",
          "name": "",
          "type": "uint256"
        }
      ],
      "name": "candidates",
      "outputs": [
        {
          "internalType": "string",
          "name": "name",
          "type": "string"
        },
        {
          "internalType": "uint256",
          "name": "voteCount",
          "type": "uint256"
        }
      ],
      "stateMutability": "view",
      "type": "function"
    },
    {
      "inputs": [],
      "name": "getCandidateCount",
      "outputs": [
        {
          "internalType": "uint256",
          "name": "",
          "type": "uint256"
        }
      ],
      "stateMutability": "view",
      "type": "function"
    },
    {
      "inputs": [],
      "name": "getCandidates",
      "outputs": [
        {
          "internalType": "string[]",
          "name": "",
          "type": "string[]"
        }
      ],
      "stateMutability": "view",
      "type": "function"
    },
    {
      "inputs": [],
      "name": "getResults",
      "outputs": [
        {
          "internalType": "string[]",
          "name": "names",
          "type": "string[]"
        },
        {
          "internalType": "uint256[]",
          "name": "voteCounts",
          "type": "uint256[]"
        }
      ],
      "stateMutability": "view",
      "type": "function"
    },
    {
      "inputs": [],
      "name": "hasAlreadyVoted",
      "outputs": [
        {
          "internalType": "bool",
          "name": "",
          "type": "bool"
        }
      ],
      "stateMutability": "view",
      "type": "function"
    },
    {
      "inputs": [
        {
          "internalType": "address",
          "name": "",
          "type": "address"
        }
      ],
      "name": "hasVoted",
      "outputs": [
        {
          "internalType": "bool",
          "name": "",
          "type": "bool"
        }
      ],
      "stateMutability": "view",
      "type": "function"
    },
    {
      "inputs": [],
      "name": "isEqual",
      "outputs": [
        {
          "internalType": "bool",
          "name": "",
          "type": "bool"
        }
      ],
      "stateMutability": "view",
      "type": "function"
    },
    {
      "inputs": [],
      "name": "resetVotes",
      "outputs": [],
      "stateMutability": "nonpayable",
      "type": "function"
    },
    {
      "inputs": [],
      "name": "totalVotes",
      "outputs": [
        {
          "internalType": "uint256",
          "name": "",
          "type": "uint256"
        }
      ],
      "stateMutability": "view",
      "type": "function"
    },
    {
      "inputs": [
        {
          "internalType": "string",
          "name": "candidateName",
          "type": "string"
        }
      ],
      "name": "voteByName",
      "outputs": [],
      "stateMutability": "nonpayable",
      "type": "function"
    },
    {
      "inputs": [
        {
          "internalType": "uint256",
          "name": "",
          "type": "uint256"
        }
      ],
      "name": "voters",
      "outputs": [
        {
          "internalType": "address",
          "name": "",
          "type": "address"
        }
      ],
      "stateMutability": "view",
      "type": "function"
    }
  ],
  "bytecode": "0x608060405234801561001057600080fd5b50604051611b54380380611b548339818101604052810190610032919061032a565b60005b81518110156100c8576000604051806040016040528084848151811061005e5761005d610373565b5b602002602001015181526020016000815250908060018154018082558091505060019003906000526020600020906002020160009091909190915060008201518160000190816100ae91906105c3565b506020820151816001015550508080600101915050610035565b5050610695565b6000604051905090565b600080fd5b600080fd5b600080fd5b6000601f19601f8301169050919050565b7f4e487b7100000000000000000000000000000000000000000000000000000000600052604160045260246000fd5b610131826100e8565b810181811067ffffffffffffffff821117156101505761014f6100f9565b5b80604052505050565b60006101636100cf565b905061016f8282610128565b919050565b600067ffffffffffffffff82111561018f5761018e6100f9565b5b602082029050602081019050919050565b600080fd5b600080fd5b600067ffffffffffffffff8211156101c5576101c46100f9565b5b6101ce826100e8565b9050602081019050919050565b60005b838110156101f95780820151818401526020810190506101de565b60008484015250505050565b6000610218610213846101aa565b610159565b905082815260208101848484011115610234576102336101a5565b5b61023f8482856101db565b509392505050565b600082601f83011261025c5761025b6100e3565b5b815161026c848260208601610205565b91505092915050565b600061028861028384610174565b610159565b905080838252602082019050602084028301858111156102ab576102aa6101a0565b5b835b818110156102f257805167ffffffffffffffff8111156102d0576102cf6100e3565b5b8086016102dd8982610247565b855260208501945050506020810190506102ad565b5050509392505050565b600082601f830112610311576103106100e3565b5b8151610321848260208601610275565b91505092915050565b6000602082840312156103405761033f6100d9565b5b600082015167ffffffffffffffff81111561035e5761035d6100de565b5b61036a848285016102fc565b91505092915050565b7f4e487b7100000000000000000000000000000000000000000000000000000000600052603260045260246000fd5b600081519050919050565b7f4e487b7100000000000000000000000000000000000000000000000000000000600052602260045260246000fd5b600060028204905060018216806103f457607f821691505b602082108103610407576104066103ad565b5b50919050565b60008190508160005260206000209050919050565b60006020601f8301049050919050565b600082821b905092915050565b60006008830261046f7fffffffffffffffffffffffffffffffffffffffffffffffffffffffffffffffff82610432565b6104798683610432565b95508019841693508086168417925050509392505050565b6000819050919050565b6000819050919050565b60006104c06104bb6104b684610491565b61049b565b610491565b9050919050565b6000819050919050565b6104da836104a5565b6104ee6104e6826104c7565b84845461043f565b825550505050565b600090565b6105036104f6565b61050e8184846104d1565b505050565b5b81811015610532576105276000826104fb565b600181019050610514565b5050565b601f821115610577576105488161040d565b61055184610422565b81016020851015610560578190505b61057461056c85610422565b830182610513565b50505b505050565b600082821c905092915050565b600061059a6000198460080261057c565b1980831691505092915050565b60006105b38383610589565b9150826002028217905092915050565b6105cc826103a2565b67ffffffffffffffff8111156105e5576105e46100f9565b5b6105ef82546103dc565b6105fa828285610536565b600060209050601f83116001811461062d576000841561061b578287015190505b61062585826105a7565b86555061068d565b601f19841661063b8661040d565b60005b828110156106635784890151825560018201915060208501945060208101905061063e565b86831015610680578489015161067c601f891682610589565b8355505b6001600288020188555050505b505050505050565b6114b0806106a46000396000f3fe608060405234801561001057600080fd5b50600436106100b45760003560e01c8063449b6db211610071578063449b6db2146101925780634717f97c146101b057806388c10463146101cf578063acbe8452146101eb578063b9830ff114610209578063da58c7d914610213576100b4565b806305b0baa8146100b957806306a49fce146100d757806309eef43e146100f55780630d15fd771461012557806330a56347146101435780633477ee2e14610161575b600080fd5b6100c1610243565b6040516100ce9190610b90565b60405180910390f35b6100df610248565b6040516100ec9190610cfd565b60405180910390f35b61010f600480360381019061010a9190610d91565b610391565b60405161011c9190610dd9565b60405180910390f35b61012d6103b1565b60405161013a9190610b90565b60405180910390f35b61014b6103b7565b6040516101589190610b90565b60405180910390f35b61017b60048036038101906101769190610e20565b6103c3565b604051610189929190610e97565b60405180910390f35b61019a61047f565b6040516101a79190610dd9565b60405180910390f35b6101b86104d3565b6040516101c6929190610f85565b60405180910390f35b6101e960048036038101906101e491906110f1565b6106a9565b005b6101f361094d565b6040516102009190610dd9565b60405180910390f35b6102116109e6565b005b61022d60048036038101906102289190610e20565b610afa565b60405161023a9190611149565b60405180910390f35b600281565b60606000808054905067ffffffffffffffff81111561026a57610269610fc6565b5b60405190808252806020026020018201604052801561029d57816020015b60608152602001906001900390816102885790505b50905060005b60008054905081101561038957600081815481106102c4576102c3611164565b5b906000526020600020906002020160000180546102e0906111c2565b80601f016020809104026020016040519081016040528092919081815260200182805461030c906111c2565b80156103595780601f1061032e57610100808354040283529160200191610359565b820191906000526020600020905b81548152906001019060200180831161033c57829003601f168201915b505050505082828151811061037157610370611164565b5b602002602001018190525080806001019150506102a3565b508091505090565b60016020528060005260406000206000915054906101000a900460ff1681565b60035481565b60008080549050905090565b600081815481106103d357600080fd5b90600052602060002090600202016000915090508060000180546103f6906111c2565b80601f0160208091040260200160405190810160405280929190818152602001828054610422906111c2565b801561046f5780601f106104445761010080835404028352916020019161046f565b820191906000526020600020905b81548152906001019060200180831161045257829003601f168201915b5050505050908060010154905082565b6000600160003373ffffffffffffffffffffffffffffffffffffffff1673ffffffffffffffffffffffffffffffffffffffff16815260200190815260200160002060009054906101000a900460ff16905090565b6060806000808054905090508067ffffffffffffffff8111156104f9576104f8610fc6565b5b60405190808252806020026020018201604052801561052c57816020015b60608152602001906001900390816105175790505b5092508067ffffffffffffffff81111561054957610548610fc6565b5b6040519080825280602002602001820160405280156105775781602001602082028036833780820191505090505b50915060005b818110156106a3576000818154811061059957610598611164565b5b906000526020600020906002020160000180546105b5906111c2565b80601f01602080910402602001604051908101604052809291908181526020018280546105e1906111c2565b801561062e5780601f106106035761010080835404028352916020019161062e565b820191906000526020600020905b81548152906001019060200180831161061157829003601f168201915b505050505084828151811061064657610645611164565b5b60200260200101819052506000818154811061066557610664611164565b5b90600052602060002090600202016001015483828151811061068a57610689611164565b5b602002602001018181525050808060010191505061057d565b50509091565b600160003373ffffffffffffffffffffffffffffffffffffffff1673ffffffffffffffffffffffffffffffffffffffff16815260200190815260200160002060009054906101000a900460ff1615610736576040517f08c379a000000000000000000000000000000000000000000000000000000000815260040161072d9061123f565b60405180910390fd5b60026003541061077b576040517f08c379a0000000000000000000000000000000000000000000000000000000008152600401610772906112d1565b60405180910390fd5b60008080549050905060005b6000805490508110156107f0578280519060200120600082815481106107b0576107af611164565b5b90600052602060002090600202016000016040516107ce9190611394565b6040518091039020036107e3578091506107f0565b8080600101915050610787565b506000805490508110610838576040517f08c379a000000000000000000000000000000000000000000000000000000000815260040161082f906113f7565b60405180910390fd5b60018060003373ffffffffffffffffffffffffffffffffffffffff1673ffffffffffffffffffffffffffffffffffffffff16815260200190815260200160002060006101000a81548160ff0219169083151502179055506002339080600181540180825580915050600190039060005260206000200160009091909190916101000a81548173ffffffffffffffffffffffffffffffffffffffff021916908373ffffffffffffffffffffffffffffffffffffffff1602179055506001600360008282546109059190611446565b9250508190555060016000828154811061092257610921611164565b5b906000526020600020906002020160010160008282546109429190611446565b925050819055505050565b60006002600354101561096357600090506109e3565b60008060005b6000805490508110156109cd57600080828154811061098b5761098a611164565b5b9060005260206000209060020201600101549050838111156109b2578392508093506109bf565b828111156109be578092505b5b508080600101915050610969565b5080821480156109de575060008214155b925050505b90565b60005b600080549050811015610a2d576000808281548110610a0b57610a0a611164565b5b90600052602060002090600202016001018190555080806001019150506109e9565b5060005b600280549050811015610ae15760006001600060028481548110610a5857610a57611164565b5b9060005260206000200160009054906101000a900473ffffffffffffffffffffffffffffffffffffffff1673ffffffffffffffffffffffffffffffffffffffff1673ffffffffffffffffffffffffffffffffffffffff16815260200190815260200160002060006101000a81548160ff0219169083151502179055508080600101915050610a31565b50600060038190555060026000610af89190610b39565b565b60028181548110610b0a57600080fd5b906000526020600020016000915054906101000a900473ffffffffffffffffffffffffffffffffffffffff1681565b5080546000825590600052602060002090810190610b579190610b5a565b50565b5b80821115610b73576000816000905550600101610b5b565b5090565b6000819050919050565b610b8a81610b77565b82525050565b6000602082019050610ba56000830184610b81565b92915050565b600081519050919050565b600082825260208201905092915050565b6000819050602082019050919050565b600081519050919050565b600082825260208201905092915050565b60005b83811015610c11578082015181840152602081019050610bf6565b60008484015250505050565b6000601f19601f8301169050919050565b6000610c3982610bd7565b610c438185610be2565b9350610c53818560208601610bf3565b610c5c81610c1d565b840191505092915050565b6000610c738383610c2e565b905092915050565b6000602082019050919050565b6000610c9382610bab565b610c9d8185610bb6565b935083602082028501610caf85610bc7565b8060005b85811015610ceb5784840389528151610ccc8582610c67565b9450610cd783610c7b565b925060208a01995050600181019050610cb3565b50829750879550505050505092915050565b60006020820190508181036000830152610d178184610c88565b905092915050565b6000604051905090565b600080fd5b600080fd5b600073ffffffffffffffffffffffffffffffffffffffff82169050919050565b6000610d5e82610d33565b9050919050565b610d6e81610d53565b8114610d7957600080fd5b50565b600081359050610d8b81610d65565b92915050565b600060208284031215610da757610da6610d29565b5b6000610db584828501610d7c565b91505092915050565b60008115159050919050565b610dd381610dbe565b82525050565b6000602082019050610dee6000830184610dca565b92915050565b610dfd81610b77565b8114610e0857600080fd5b50565b600081359050610e1a81610df4565b92915050565b600060208284031215610e3657610e35610d29565b5b6000610e4484828501610e0b565b91505092915050565b600082825260208201905092915050565b6000610e6982610bd7565b610e738185610e4d565b9350610e83818560208601610bf3565b610e8c81610c1d565b840191505092915050565b60006040820190508181036000830152610eb18185610e5e565b9050610ec06020830184610b81565b9392505050565b600081519050919050565b600082825260208201905092915050565b6000819050602082019050919050565b610efc81610b77565b82525050565b6000610f0e8383610ef3565b60208301905092915050565b6000602082019050919050565b6000610f3282610ec7565b610f3c8185610ed2565b9350610f4783610ee3565b8060005b83811015610f78578151610f5f8882610f02565b9750610f6a83610f1a565b925050600181019050610f4b565b5085935050505092915050565b60006040820190508181036000830152610f9f8185610c88565b90508181036020830152610fb38184610f27565b90509392505050565b600080fd5b600080fd5b7f4e487b7100000000000000000000000000000000000000000000000000000000600052604160045260246000fd5b610ffe82610c1d565b810181811067ffffffffffffffff8211171561101d5761101c610fc6565b5b80604052505050565b6000611030610d1f565b905061103c8282610ff5565b919050565b600067ffffffffffffffff82111561105c5761105b610fc6565b5b61106582610c1d565b9050602081019050919050565b82818337600083830152505050565b600061109461108f84611041565b611026565b9050828152602081018484840111156110b0576110af610fc1565b5b6110bb848285611072565b509392505050565b600082601f8301126110d8576110d7610fbc565b5b81356110e8848260208601611081565b91505092915050565b60006020828403121561110757611106610d29565b5b600082013567ffffffffffffffff81111561112557611124610d2e565b5b611131848285016110c3565b91505092915050565b61114381610d53565b82525050565b600060208201905061115e600083018461113a565b92915050565b7f4e487b7100000000000000000000000000000000000000000000000000000000600052603260045260246000fd5b7f4e487b7100000000000000000000000000000000000000000000000000000000600052602260045260246000fd5b600060028204905060018216806111da57607f821691505b6020821081036111ed576111ec611193565b5b50919050565b7f566f7573206176657a2064656a6120766f74652e000000000000000000000000600082015250565b6000611229601483610e4d565b9150611234826111f3565b602082019050919050565b600060208201905081810360008301526112588161121c565b9050919050565b7f4c65206e6f6d627265206d6178696d756d20646520766f74657320612065746560008201527f2061747465696e742e0000000000000000000000000000000000000000000000602082015250565b60006112bb602983610e4d565b91506112c68261125f565b604082019050919050565b600060208201905081810360008301526112ea816112ae565b9050919050565b600081905092915050565b60008190508160005260206000209050919050565b6000815461131e816111c2565b61132881866112f1565b9450600182166000811461134357600181146113585761138b565b60ff198316865281151582028601935061138b565b611361856112fc565b60005b8381101561138357815481890152600182019150602081019050611364565b838801955050505b50505092915050565b60006113a08284611311565b915081905092915050565b7f4c652063616e6469646174206e27657869737465207061732e00000000000000600082015250565b60006113e1601983610e4d565b91506113ec826113ab565b602082019050919050565b60006020820190508181036000830152611410816113d4565b9050919050565b7f4e487b7100000000000000000000000000000000000000000000000000000000600052601160045260246000fd5b600061145182610b77565b915061145c83610b77565b925082820190508082111561147457611473611417565b5b9291505056fea2646970667358221220f013312be4f550f8fe9d87c4701afd340b84535a5f642d1336226be03118946364736f6c634300081c0033",
  "linkReferences": {},
  "deployedLinkReferences": {}
}