{
  "_format": "hh-sol-artifact-1",
  "contractName": "Vote",
  "sourceName": "contracts/Vote.sol",
  "abi": [
    {
      "inputs": [
        {
          "internalType": "string[]",
          "name": "candidateNames",
          "type": "string[]"
        }
      ],
      "stateMutability": "nonpayable",
      "type": "constructor"
    },
    {
      "inputs": [
        {
          "internalType": "uint256",
          "name": "",
          "type": "uint256"
        }
      ],
      "name": "candidates",
      "outputs": [
        {
          "internalType": "string",
          "name": "name",
          "type": "string"
        },
        {
          "internalType": "uint256",
          "name": "voteCount",
          "type": "uint256"
        }
      ],
      "stateMutability": "view",
      "type": "function"
    },
    {
      "inputs": [],
      "name": "getCandidateCount",
      "outputs": [
        {
          "internalType": "uint256",
          "name": "",
          "type": "uint256"
        }
      ],
      "stateMutability": "view",
      "type": "function"
    },
    {
      "inputs": [],
      "name": "getCandidates",
      "outputs": [
        {
          "internalType": "string[]",
          "name": "",
          "type": "string[]"
        }
      ],
      "stateMutability": "view",
      "type": "function"
    },
    {
      "inputs": [],
      "name": "getResults",
      "outputs": [
        {
          "internalType": "string[]",
          "name": "names",
          "type": "string[]"
        },
        {
          "internalType": "uint256[]",
          "name": "voteCounts",
          "type": "uint256[]"
        }
      ],
      "stateMutability": "view",
      "type": "function"
    },
    {
      "inputs": [
        {
          "internalType": "address",
          "name": "",
          "type": "address"
        }
      ],
      "name": "hasVoted",
      "outputs": [
        {
          "internalType": "bool",
          "name": "",
          "type": "bool"
        }
      ],
      "stateMutability": "view",
      "type": "function"
    },
    {
      "inputs": [
        {
          "internalType": "string",
          "name": "candidateName",
          "type": "string"
        }
      ],
      "name": "voteByName",
      "outputs": [],
      "stateMutability": "nonpayable",
      "type": "function"
    }
  ],
  "bytecode": "0x608060405234801561001057600080fd5b506040516116493803806116498339818101604052810190610032919061032a565b60005b81518110156100c8576000604051806040016040528084848151811061005e5761005d610373565b5b602002602001015181526020016000815250908060018154018082558091505060019003906000526020600020906002020160009091909190915060008201518160000190816100ae91906105c3565b506020820151816001015550508080600101915050610035565b5050610695565b6000604051905090565b600080fd5b600080fd5b600080fd5b6000601f19601f8301169050919050565b7f4e487b7100000000000000000000000000000000000000000000000000000000600052604160045260246000fd5b610131826100e8565b810181811067ffffffffffffffff821117156101505761014f6100f9565b5b80604052505050565b60006101636100cf565b905061016f8282610128565b919050565b600067ffffffffffffffff82111561018f5761018e6100f9565b5b602082029050602081019050919050565b600080fd5b600080fd5b600067ffffffffffffffff8211156101c5576101c46100f9565b5b6101ce826100e8565b9050602081019050919050565b60005b838110156101f95780820151818401526020810190506101de565b60008484015250505050565b6000610218610213846101aa565b610159565b905082815260208101848484011115610234576102336101a5565b5b61023f8482856101db565b509392505050565b600082601f83011261025c5761025b6100e3565b5b815161026c848260208601610205565b91505092915050565b600061028861028384610174565b610159565b905080838252602082019050602084028301858111156102ab576102aa6101a0565b5b835b818110156102f257805167ffffffffffffffff8111156102d0576102cf6100e3565b5b8086016102dd8982610247565b855260208501945050506020810190506102ad565b5050509392505050565b600082601f830112610311576103106100e3565b5b8151610321848260208601610275565b91505092915050565b6000602082840312156103405761033f6100d9565b5b600082015167ffffffffffffffff81111561035e5761035d6100de565b5b61036a848285016102fc565b91505092915050565b7f4e487b7100000000000000000000000000000000000000000000000000000000600052603260045260246000fd5b600081519050919050565b7f4e487b7100000000000000000000000000000000000000000000000000000000600052602260045260246000fd5b600060028204905060018216806103f457607f821691505b602082108103610407576104066103ad565b5b50919050565b60008190508160005260206000209050919050565b60006020601f8301049050919050565b600082821b905092915050565b60006008830261046f7fffffffffffffffffffffffffffffffffffffffffffffffffffffffffffffffff82610432565b6104798683610432565b95508019841693508086168417925050509392505050565b6000819050919050565b6000819050919050565b60006104c06104bb6104b684610491565b61049b565b610491565b9050919050565b6000819050919050565b6104da836104a5565b6104ee6104e6826104c7565b84845461043f565b825550505050565b600090565b6105036104f6565b61050e8184846104d1565b505050565b5b81811015610532576105276000826104fb565b600181019050610514565b5050565b601f821115610577576105488161040d565b61055184610422565b81016020851015610560578190505b61057461056c85610422565b830182610513565b50505b505050565b600082821c905092915050565b600061059a6000198460080261057c565b1980831691505092915050565b60006105b38383610589565b9150826002028217905092915050565b6105cc826103a2565b67ffffffffffffffff8111156105e5576105e46100f9565b5b6105ef82546103dc565b6105fa828285610536565b600060209050601f83116001811461062d576000841561061b578287015190505b61062585826105a7565b86555061068d565b601f19841661063b8661040d565b60005b828110156106635784890151825560018201915060208501945060208101905061063e565b86831015610680578489015161067c601f891682610589565b8355505b6001600288020188555050505b505050505050565b610fa5806106a46000396000f3fe608060405234801561001057600080fd5b50600436106100625760003560e01c806306a49fce1461006757806309eef43e1461008557806330a56347146100b55780633477ee2e146100d35780634717f97c1461010457806388c1046314610123575b600080fd5b61006f61013f565b60405161007c919061087a565b60405180910390f35b61009f600480360381019061009a919061090e565b610288565b6040516100ac9190610956565b60405180910390f35b6100bd6102a8565b6040516100ca919061098a565b60405180910390f35b6100ed60048036038101906100e891906109d1565b6102b4565b6040516100fb929190610a48565b60405180910390f35b61010c610370565b60405161011a929190610b36565b60405180910390f35b61013d60048036038101906101389190610ca2565b610546565b005b60606000808054905067ffffffffffffffff81111561016157610160610b77565b5b60405190808252806020026020018201604052801561019457816020015b606081526020019060019003908161017f5790505b50905060005b60008054905081101561028057600081815481106101bb576101ba610ceb565b5b906000526020600020906002020160000180546101d790610d49565b80601f016020809104026020016040519081016040528092919081815260200182805461020390610d49565b80156102505780601f1061022557610100808354040283529160200191610250565b820191906000526020600020905b81548152906001019060200180831161023357829003601f168201915b505050505082828151811061026857610267610ceb565b5b6020026020010181905250808060010191505061019a565b508091505090565b60016020528060005260406000206000915054906101000a900460ff1681565b60008080549050905090565b600081815481106102c457600080fd5b90600052602060002090600202016000915090508060000180546102e790610d49565b80601f016020809104026020016040519081016040528092919081815260200182805461031390610d49565b80156103605780601f1061033557610100808354040283529160200191610360565b820191906000526020600020905b81548152906001019060200180831161034357829003601f168201915b5050505050908060010154905082565b6060806000808054905090508067ffffffffffffffff81111561039657610395610b77565b5b6040519080825280602002602001820160405280156103c957816020015b60608152602001906001900390816103b45790505b5092508067ffffffffffffffff8111156103e6576103e5610b77565b5b6040519080825280602002602001820160405280156104145781602001602082028036833780820191505090505b50915060005b81811015610540576000818154811061043657610435610ceb565b5b9060005260206000209060020201600001805461045290610d49565b80601f016020809104026020016040519081016040528092919081815260200182805461047e90610d49565b80156104cb5780601f106104a0576101008083540402835291602001916104cb565b820191906000526020600020905b8154815290600101906020018083116104ae57829003601f168201915b50505050508482815181106104e3576104e2610ceb565b5b60200260200101819052506000818154811061050257610501610ceb565b5b90600052602060002090600202016001015483828151811061052757610526610ceb565b5b602002602001018181525050808060010191505061041a565b50509091565b600160003373ffffffffffffffffffffffffffffffffffffffff1673ffffffffffffffffffffffffffffffffffffffff16815260200190815260200160002060009054906101000a900460ff16156105d3576040517f08c379a00000000000000000000000000000000000000000000000000000000081526004016105ca90610dc6565b60405180910390fd5b60008080549050905060005b6000805490508110156106485782805190602001206000828154811061060857610607610ceb565b5b90600052602060002090600202016000016040516106269190610e89565b60405180910390200361063b57809150610648565b80806001019150506105df565b506000805490508110610690576040517f08c379a000000000000000000000000000000000000000000000000000000000815260040161068790610eec565b60405180910390fd5b60018060003373ffffffffffffffffffffffffffffffffffffffff1673ffffffffffffffffffffffffffffffffffffffff16815260200190815260200160002060006101000a81548160ff0219169083151502179055506001600082815481106106fd576106fc610ceb565b5b9060005260206000209060020201600101600082825461071d9190610f3b565b925050819055505050565b600081519050919050565b600082825260208201905092915050565b6000819050602082019050919050565b600081519050919050565b600082825260208201905092915050565b60005b8381101561078e578082015181840152602081019050610773565b60008484015250505050565b6000601f19601f8301169050919050565b60006107b682610754565b6107c0818561075f565b93506107d0818560208601610770565b6107d98161079a565b840191505092915050565b60006107f083836107ab565b905092915050565b6000602082019050919050565b600061081082610728565b61081a8185610733565b93508360208202850161082c85610744565b8060005b85811015610868578484038952815161084985826107e4565b9450610854836107f8565b925060208a01995050600181019050610830565b50829750879550505050505092915050565b600060208201905081810360008301526108948184610805565b905092915050565b6000604051905090565b600080fd5b600080fd5b600073ffffffffffffffffffffffffffffffffffffffff82169050919050565b60006108db826108b0565b9050919050565b6108eb816108d0565b81146108f657600080fd5b50565b600081359050610908816108e2565b92915050565b600060208284031215610924576109236108a6565b5b6000610932848285016108f9565b91505092915050565b60008115159050919050565b6109508161093b565b82525050565b600060208201905061096b6000830184610947565b92915050565b6000819050919050565b61098481610971565b82525050565b600060208201905061099f600083018461097b565b92915050565b6109ae81610971565b81146109b957600080fd5b50565b6000813590506109cb816109a5565b92915050565b6000602082840312156109e7576109e66108a6565b5b60006109f5848285016109bc565b91505092915050565b600082825260208201905092915050565b6000610a1a82610754565b610a2481856109fe565b9350610a34818560208601610770565b610a3d8161079a565b840191505092915050565b60006040820190508181036000830152610a628185610a0f565b9050610a71602083018461097b565b9392505050565b600081519050919050565b600082825260208201905092915050565b6000819050602082019050919050565b610aad81610971565b82525050565b6000610abf8383610aa4565b60208301905092915050565b6000602082019050919050565b6000610ae382610a78565b610aed8185610a83565b9350610af883610a94565b8060005b83811015610b29578151610b108882610ab3565b9750610b1b83610acb565b925050600181019050610afc565b5085935050505092915050565b60006040820190508181036000830152610b508185610805565b90508181036020830152610b648184610ad8565b90509392505050565b600080fd5b600080fd5b7f4e487b7100000000000000000000000000000000000000000000000000000000600052604160045260246000fd5b610baf8261079a565b810181811067ffffffffffffffff82111715610bce57610bcd610b77565b5b80604052505050565b6000610be161089c565b9050610bed8282610ba6565b919050565b600067ffffffffffffffff821115610c0d57610c0c610b77565b5b610c168261079a565b9050602081019050919050565b82818337600083830152505050565b6000610c45610c4084610bf2565b610bd7565b905082815260208101848484011115610c6157610c60610b72565b5b610c6c848285610c23565b509392505050565b600082601f830112610c8957610c88610b6d565b5b8135610c99848260208601610c32565b91505092915050565b600060208284031215610cb857610cb76108a6565b5b600082013567ffffffffffffffff811115610cd657610cd56108ab565b5b610ce284828501610c74565b91505092915050565b7f4e487b7100000000000000000000000000000000000000000000000000000000600052603260045260246000fd5b7f4e487b7100000000000000000000000000000000000000000000000000000000600052602260045260246000fd5b60006002820490506001821680610d6157607f821691505b602082108103610d7457610d73610d1a565b5b50919050565b7f566f7573206176657a2064656a6120766f74652e000000000000000000000000600082015250565b6000610db06014836109fe565b9150610dbb82610d7a565b602082019050919050565b60006020820190508181036000830152610ddf81610da3565b9050919050565b600081905092915050565b60008190508160005260206000209050919050565b60008154610e1381610d49565b610e1d8186610de6565b94506001821660008114610e385760018114610e4d57610e80565b60ff1983168652811515820286019350610e80565b610e5685610df1565b60005b83811015610e7857815481890152600182019150602081019050610e59565b838801955050505b50505092915050565b6000610e958284610e06565b915081905092915050565b7f4c652063616e6469646174206e27657869737465207061732e00000000000000600082015250565b6000610ed66019836109fe565b9150610ee182610ea0565b602082019050919050565b60006020820190508181036000830152610f0581610ec9565b9050919050565b7f4e487b7100000000000000000000000000000000000000000000000000000000600052601160045260246000fd5b6000610f4682610971565b9150610f5183610971565b9250828201905080821115610f6957610f68610f0c565b5b9291505056fea264697066735822122093e6ad59d376c7356d6f40921f88b9feed2b1af396c314a9c4507fe01d47ab5764736f6c634300081c0033",
  "linkReferences": {},
  "deployedLinkReferences": {}
}